:100000000C94A3050C94CB050C94CB050C94CB0558
:100010000C94CB050C94CB050C94CB050C94CB0520
:100020000C94CB050C94CB050C94CB050C94CB0510
:100030000C94CB050C94CB050C94CB050C94CB0500
:100040000C94E6280C94CB050C94B4280C948E28C0
:100050000C94CB050C94CB050C94CB050C94CB05E0
:100060000C9430290C94CB05084AD73B3BCE016E4B
:1000700084BCBFFDC12F3D6C74319ABD56833DDAFF
:100080003D00C77F11BED9E4BB4C3E916BAAAABE0E
:10009000000000803F05A84CCDB2D44EB93836A937
:1000A000020C50B9918688083CA6AAAA2ABE000074
:1000B00000803F0000407A10F35A00A0724E1809E9
:1000C0000010A5D4E80000E87648170000E40B54BF
:1000D000020000CA9A3B000000E1F505000080968E
:1000E0009800000040420F000000A08601000000C0
:1000F000102700000000E80300000000640000007A
:1001000000000A00000000000100000000002C7642
:10011000D888DC674F0823DFC1DFAE59E1B1B7965D
:10012000E5E3E453C63AE651997696E8E6C28426BA
:10013000EB898C9B62ED407C6FFCEFBC9C9F40F296
:10014000BAA56FA5F490055A2AF75C936B6CF96712
:100150006DC11BFCE0E40D47FEF520E6B500D0EDD7
:10016000902E0300943577050080841E080000203F
:100170004E0A000000C80C333333330F986E1283DD
:100180001141EF8D2114893BE65516CFFEE6DB18B1
:10019000D1844B381BF77C1D901DA4BBE424203276
:1001A00084725E228100C9F124ECA1E53D270000A4
:1001B00000000200040008000F00170021002300C7
:1001C00026002900300032003400350036003C00A3
:1001D000440047004D0054005A00600066006A0069
:1001E0007100770079007C00830085008C0092000C
:1001F00097009B00A100A600AA00AE00B100B700C6
:10020000BA00BD00C100C900CB00D000D600DA00A2
:10021000DE00E500EC00F300F500F800FD0002014F
:100220000B01100117011A012001230128012901E6
:100230002B01310135013A013E01430146014B01D9
:100240004E01520155015B015E01630166016A01C5
:100250006E01720175017A017D01800185018A01BB
:10026000930197019C01A101A201A701AB01AB0180
:1002700060000040001002101140134040042004B0
:100280001103310351030300200063004500000007
:100290005500140023003200410050000500020206
:1002A0002202610240104410110065003100350047
:1002B0001500100001001040610001006000000006
:1002C000114054002120232010001400500030045D
:1002D00012403004700061003004600060002400AF
:1002E000330042005100150010404100010361033A
:1002F0001400230032001540026011006004100059
:100300000103310315104010600501036103500023
:100310003301451010001510046030000300120076
:100320002100400550002004610335201000000525
:1003300010400103310361031500451053101510DF
:100340003410000501033103610310104510401003
:1003500015105000010331036103101015406000B7
:100360003000700061003100630012002100300095
:10037000410052000300400420040000110022004C
:10038000600042005100330001036300100034009C
:100390004300151015001040010361032322105083
:1003A000410301031550006001033103610345104F
:1003B0001510104001036103550015000060610332
:1003C0000103154000603102610401040060310244
:1003D0000104104001036103150045103302006061
:1003E00031030560026060040004500015406103A1
:1003F0000005006064001300220031004200530039
:100400000400006061040060220011001300046019
:1004100000604400110022003300056010406103B9
:1004200001031540006001034103152010407500D1
:1004300001036101530064001540006001033103B2
:1004400065004300540015100103310361031010CF
:100450005000150045100260000400506103055073
:10046000004054006201510005400040531032101A
:10047000511004400010440032015010551021006A
:1004800024004100051000203300422031000420E8
:100490005100600515002400330042000005006093
:1004A00061010101000011002200330044005500E9
:1004B000600100010260020011001300200024000E
:1004C0007005000011004103210261023420500038
:1004D00065000050210361033520210361033020B2
:1004E00055003500302021036103056035002103EC
:1004F000610330204005105031010102301021030A
:100500007103353051040060210335302140200053
:1005100001006002020070012240006063003200AE
:1005200041005200230001600000600230302300CF
:100530003210210034302004303035302103610383
:100540003020352020502103510335103010210375
:100550005103255020403100220155006004410321
:100560003000210401502002620120306103253057
:1005700020205400620151002520203063004210E9
:100580006100243042012000650031003400510038
:1005900054006000250020205103710325405100C4
:1005A000600433004200200411104110620030004A
:1005B00002000070111041100000600032000101C3
:1005C00013001000040100000000003E5B4F5B3E82
:1005D0003E6B4F6B3E1C3E7C3E1C183C7E3C181C08
:1005E000577D571C1C5E7F5E1C00183C1800FFE7FF
:1005F000C3E7FF0018241800FFE7DBE7FF30483AA5
:10060000060E2629792926407F050507407F052506
:100610003F5A3CE73C5A7F3E1C1C08081C1C3E7F8E
:1006200014227F22145F5F005F5F06097F017F0055
:100630006689956A606060606094A2FFA294080475
:100640007E040810207E201008082A1C08081C2A96
:1006500008081E101010100C1E0C1E0C30383E38EE
:1006600030060E3E0E06000000000000005F000095
:100670000007000700147F147F14242A7F2A122306
:100680001308646236495620500008070300001C16
:100690002241000041221C002A1C7F1C2A08083E1F
:1006A0000808008070300008080808080000606032
:1006B0000020100804023E5149453E00427F4000A0
:1006C00072494949462141494D331814127F102778
:1006D000454545393C4A49493141211109073649C7
:1006E000494936464949291E00001400000040349B
:1006F00000000008142241141414141400412214A0
:100700000802015909063E415D594E7C1211127CC6
:100710007F494949363E414141227F4141413E7F27
:10072000494949417F090909013E414151737F0807
:1007300008087F00417F41002040413F017F0814AD
:1007400022417F404040407F021C027F7F0408100E
:100750007F3E4141413E7F090909063E4151215EEC
:100760007F09192946264949493203017F01033F80
:100770004040403F1F2040201F3F4038403F63140F
:1007800008146303047804036159494D43007F4111
:1007900041410204081020004141417F040201024E
:1007A0000440404040400003070800205454784073
:1007B0007F284444383844444428384444287F3807
:1007C0005454541800087E090218A4A49C787F0889
:1007D00004047800447D40002040403D007F102804
:1007E000440000417F40007C047804787C080404C5
:1007F000783844444438FC1824241818242418FC5D
:100800007C08040408485454542404043F44243C01
:100810004040207C1C2040201C3C4030403C442870
:100820001028444C9090907C4464544C440008360A
:100830004100000077000000413608000201020478
:10084000023C2623263C1EA1A161123A4040207A98
:1008500038545455592155557941225454784221E0
:100860005554784020545579400C1E527212395517
:100870005555593954545459395554545800004514
:100880007C410002457D420001457C407D121112F1
:100890007DF0282528F07C545545002054547C5484
:1008A0007C0A097F4932494949323A4444443A3240
:1008B0004A4848303A4141217A3A42402078009DE6
:1008C000A0A07D3D4242423D3D4040403D3C24FF92
:1008D0002424487E4943662B2FFC2F2BFF0929F641
:1008E00020C0887E090320545479410000447D4192
:1008F0003048484A32384040227A007A0A0A727DEB
:100900000D19317D2629292F282629292926304805
:100910004D4020380808080808080808382F10C873
:10092000ACBA2F102834FA00007B000008142A14F7
:100930002222142A14085500550055AA55AA55AA72
:10094000FF55FF55FF000000FF00101010FF0014BE
:100950001414FF001010FF00FF1010F010F014141A
:1009600014FC001414F700FF0000FF00FF1414F43F
:1009700004FC141417101F10101F101F1414141F40
:1009800000101010F0000000001F101010101F10B9
:10099000101010F010000000FF10101010101010B8
:1009A0001010FF10000000FF140000FF00FF000007
:1009B0001F10170000FC04F414141710171414F47B
:1009C00004F40000FF00F714141414141414F700B6
:1009D000F7141414171410101F101F141414F41407
:1009E0001010F010F000001F101F0000001F140076
:1009F0000000FC140000F010F01010FF10FF1414A1
:100A000014FF141010101F00000000F010FFFFFF73
:100A1000FFFFF0F0F0F0F0FFFFFF0000000000FF2C
:100A2000FF0F0F0F0F0F3844443844FC4A4A4A3432
:100A30007E02020606027E027E0263554941633849
:100A400044443C04407E201E2006027E020299A5FA
:100A5000E7A5991C2A492A1C4C7201724C304A4D58
:100A60004D303048784830BC625A463D3E4949498D
:100A7000007E0101017E2A2A2A2A2A44445F444436
:100A800040514A444040444A51400000FF0103E0C5
:100A900080FF000008086B6B083612362436060FFC
:100AA000090F06000018180000001010003040FF69
:100AB0000101001F01011E00191D1712003C3C3CE2
:100AC0003C00000000000000000023002600290078
:100AD00000000008000201000003040700000000FD
:100AE0000000000000000000240027002A0001028E
:100AF00004081020408001020408102001020408AC
:100B0000102000000000250028002B00040404042D
:100B100004040404020202020202030303030303A7
:100B2000090180961180FF3A81550A3601002A0496
:100B3000000000F02B04000000F021800A13800A5E
:100B4000298014004F2A11241FBECFEFD8E0DEBF4A
:100B5000CDBF12E0A0E0B1E0E6E2F6E702C005900A
:100B60000D92A834B107D9F724E0A8E4B2E001C09F
:100B70001D92AF36B207E1F715E0C3EAD5E004C035
:100B80002197FE010E94FC38C23AD107C9F70E94A2
:100B9000E92A0C94113B0C940000A091F503B0914C
:100BA000F60313969C911397891728F014962C91AD
:100BB0001497281740F4803209F09CC011968C914C
:100BC000869590E0089517962D913C911897891B72
:100BD000990B880F991FF901E80FF91F459154915E
:100BE0000296820F931FFC012591349111968C91EE
:100BF00011974217530721F36115710519F0FB0195
:100C000011821082EC91E770E730D8F6F0E0E25FF5
:100C1000F94F15968D919C910C94FC38150647065A
:100C200054062906680673063A06F901E150F048B1
:100C3000EE0FFF1FE80FF91F25913491832F99279D
:100C40008F7099272F7033272F5F3F4F820F931F8D
:100C50000895F901EE0FFF1FE20FF31F3397E80F1E
:100C6000F91F84913296E4918F73EF738E0F992759
:100C7000991F18C0F901E150F04CEE0FFF1FEE0F65
:100C8000FF1FE80FF91F84913296E491EFCFF9012D
:100C9000E150F048EE0FFF1FE80FF91F8591949186
:100CA0008F73992701960895F901E150F048EE0FEE
:100CB000FF1FE80FF91F25913491C9018F71992702
:100CC000232F3327269526952695820F931FEACF4B
:100CD000F901EE0FFF1FE20FF31F3397E80FF91F23
:100CE000849190E0DFCFF901EE0FFF1FE20FF31FB9
:100CF0003397C7CF90E080E00895FF920F931F9342
:100D0000CF93DF93F82E70E060E00E94CD05EC01F8
:100D10000091030410910404E091F103F091F203B7
:100D20008F2D0995882389F120911404222369F1DC
:100D300030E090E080E0C217D3075CF42C1B3D0B41
:100D4000C90137FD019695958795281B390B020F30
:100D5000131F8C0F9D1F080F191F8091070490917E
:100D60000804080F191F8091090490910A049C013E
:100D7000029FC001039F900D129F900D1124DF91DF
:100D8000CF911F910F91FF90089520911304D0CF20
:100D90002F923F924F925F926F927F928F929F928B
:100DA000AF92BF92CF92DF92EF92FF920F931F9379
:100DB000CF93DF93CDB7DEB765970FB6F894DEBF5C
:100DC0000FBECDBF9F878E873B015B8B4A8B7A011D
:100DD00010E000E0F70181917F01882329F00E9453
:100DE0007D06080F191FF6CF2E853F852F3F3F4FF9
:100DF00009F06DC02090FF0330900004201A310AE2
:100E000037FE02C0312C212CEA89FB892191FB8B12
:100E1000EA8B2B87222311F40C94BA108091FF03E4
:100E2000909100042816390614F00C9490108091CB
:100E30000104909102046816790614F00C94901045
:100E4000E091F503F091F60341812091090430917E
:100E50000A04429FC001439F900D1124820D931DEF
:100E60001816190614F00C949010428120910B046E
:100E700030910C04429FC001439F900D1124860DB8
:100E8000971D1816190614F00C94901023813B85B9
:100E9000321718F08481831770F58B850E947D06C8
:100EA000280E391E80910D0490910E04892B11F4A7
:100EB0000C9494108091FF03909100042816390639
:100EC00014F40C94B310312C212C0C949B106E85CF
:100ED0007F852E843F8477FF93CF2090FF0330904F
:100EE0000004201A310A37FE03C07FEF271A370AA1
:100EF0003594279485CF878190854B85421B550B70
:100F00009A01220F331FFC01E20FF31F65917491C8
:100F100078876F83F9013296E80FF91F85919491D4
:100F2000FC01E61BF70BFC83EB83BE016F5F7F4F79
:100F30008B850E94CD059A87898720910304309183
:100F400004043E832D83E091F103F091F2038B853D
:100F50000995882309F4B8C080911404882309F402
:100F6000B3C090E049855A85481759070CF4CAC0A8
:100F7000F12CE12C89859A85820D931D8E0D9F1D84
:100F80002091FF03309100044D815E81480F591F6D
:100F90002417350784F42901421853084E185F08B6
:100FA000F20149855A85E41BF50BFE83ED83F7FFBB
:100FB00002C01E821D826D817E81860F971F2817B9
:100FC00039070CF0B4C0C901821993098E199F0921
:100FD00097FF02C090E080E0A101480F591F4E0D1D
:100FE0005F1DED81FE814E0F5F1F241735073CF416
:100FF0007901E218F308F7FE02C0F12CE12C2D81F3
:101000003E812E0D3F1DA901480F591F598B488B5A
:10101000A091F503B091F603EC91E770DE2E0091FC
:1010200011041091120480910F049091100408177C
:10103000190789F1EE2351F053E0E51739F066E026
:10104000E61721F08B819C81892B29F512964C9112
:1010500080910B0490910C04489F9001499F300DA2
:1010600011248091070490910804E889F9898E0F72
:101070009F1F6091090470910A04869FA001879FB9
:10108000500D969F500D1124E091F303F091F4035D
:10109000B301C10109956091090470910A042B8183
:1010A0003C81232B09F046C02091070430910804AD
:1010B00048895989240F351F269FC001279F900D0D
:1010C000369F900D1124ECCE8091130490E0698539
:1010D0007A85681779070CF04BCF49855A85841BB0
:1010E000950B7C0197FF03C05FEFE51AF50AF594B5
:1010F000E7948E199F096D817E81680F791F7E8329
:101100006D8338CFE985FA858E1B9F0B7C0197FF95
:1011100003C0FFEFEF1AFF0AF594E7948E199F09B9
:101120002D813E81280F391F3E832D8323CF898552
:101130009A8552CFE69EA001E79E500DF69E500D77
:1011400011242101440E551E66E06D1508F4F2C30A
:10115000ED2DF0E0E255F74F0C94FC383C0ABA0A4A
:10116000AE0C9E09C90E2E09B508F12CE12C809019
:10117000070490900804C0900904D0900A042B81C1
:101180003C81E216F30609F4D5C3A091F503B091B2
:10119000F603EF81F885EE0DFF1DEE0FFF1FEE0F3A
:1011A000FF1F15962D913C912E0F3F1FF901A49121
:1011B000B0E089819A81A81BB90BB093F803A09382
:1011C000F7033196E4918E2F90E09093FA03809389
:1011D000F903F9013296649170E06F5F7F4F70936D
:1011E000FC036093FB033196E491F0E03196F093B9
:1011F000FE03E093FD03A0900B04B0900C0400915B
:101200000F0410911004EA9D9001EB9D300DFA9DA2
:10121000300D11246C9DA0016D9D500D7C9D500DD5
:101220001124480D591D8A9DB0018B9D700D9A9D0A
:10123000700D1124660D771DAC9DC001AD9D900D04
:10124000BC9D900D1124E091F303F091F403840D03
:10125000951D0995FFEFEF1AFF0A89CFF12CE12CBC
:101260004091070450910804C0900904D0900A04EA
:101270006B817C81E616F70609F45CC3A091F50347
:10128000B091F603EF81F885EE0DFF1D9F01220F4F
:10129000331FE20FF31F15962D913C912E0F3F1F28
:1012A000F901A491B0E089819A81A81BB90BB09390
:1012B000F803A093F7033196E4918E2F90E090937A
:1012C000FA038093F903F9013296E491F0E0319644
:1012D000F093FC03E093FB0321E030E03093FE0346
:1012E0002093FD0320910B0430910C0400910F0416
:1012F00010911004EC9DB001ED9D700DFC9D700DE2
:101300001124460F571F829FB001839F700D929F3B
:10131000700D1124660D771DAC9DC001AD9D900D23
:10132000BC9D900D1124E091F303F091F403840D22
:10133000951D09953FEFE31AF30A92CFF12CE12CAA
:101340008090070490900804C0900904D0900A048B
:10135000EB81FC81EE16FF0609F4ECC2E091F50387
:10136000F091F6032F8138852E0D3F1DC901880F9E
:10137000991F820F931F25813681820F931FFC01D5
:10138000A491AF73B0E029813A81A21BB30BB09353
:10139000F803A093F703AC014F5F5F4FFA0124916C
:1013A0002F73A22EB12CB092FA03A092F9039C01E4
:1013B0002E5F3F4FF90164916F7370E06F5F7F4F55
:1013C0007093FC036093FB03FC011491FA01849178
:1013D000F901249190E004E0959587950A95E1F74D
:1013E0008C70992730E03595279535952795207392
:1013F0003327282B392B812F90E056E09595879540
:101400005A95E1F7822B932B01969093FE038093DC
:10141000FD03E0910B04F0910C0400910F04109176
:1014200010048E9F90018F9F300D9E9F300D1124D0
:101430006C9DA0016D9D500D7C9D500D1124480D9B
:10144000591DAE9EB001AF9E700DBE9E700D112451
:10145000660D771DAC9DC001AD9D900DBC9D900D9E
:101460001124E091F303F091F403840D951D099587
:10147000FFEFEF1AFF0A64CFF12CE12C4091070433
:1014800050910804A0900904B0900A048B819C81BB
:10149000E816F90609F44EC2A091F503B091F603DF
:1014A0008F8198858E0D9F1D880F991F1596ED9140
:1014B000FC91E80FF91F85919491FC01EF70FF27D3
:1014C00029813A81E21BF30BF093F803E093F703D1
:1014D000DC0174E0B695A7957A95E1F7AF70BB276C
:1014E000B093FA03A093F903692F77276F707727DA
:1014F0006F5F7F4F7093FC036093FB03892F9927E5
:1015000082958F7001969093FE038093FD03C090A7
:101510000B04D0900C0400910F04109110048C9DCA
:1015200090018D9D300D9C9D300D11246A9DC00150
:101530006B9D900D7A9D900D1124480F591FAC9D05
:10154000B001AD9D700DBC9D700D1124660D771D11
:10155000EA9DC001EB9D900DFA9D900D1124E09144
:10156000F303F091F403840D951D09959FEFE91A9B
:10157000F90A84CF009111041091120480910F0494
:10158000909110040817190709F076C0F12CE12C8E
:101590004091070450910804A0910904B0910A04F5
:1015A0002B813C81E216F30609F4C4C12091F503B6
:1015B0003091F6038F8198858E0D9F1D880F991F9E
:1015C000F90125813681F901E80FF91F8591949180
:1015D000FC01EF73FF2729813A81E21BF30BF093A3
:1015E000F803E093F7036C0116E0D694C7941A95BC
:1015F000E1F72FE1C222DD24D092FA03C092F90371
:10160000892F992786958695869501969093FE0356
:101610008093FD0361E070E07093FC036093FB0333
:10162000A0900B04B0900C0400910F0410911004D2
:101630008A9D90018B9D300D9A9D300D11244A0F8B
:101640005B1FCA9CB001CB9C700DDA9C700D1124FD
:10165000660D771DEA9FC001EB9F900DFA9F900DDC
:101660001124E091F303F091F403840D951D099585
:101670007FEFE71AF70A8CCF1E141F04ACF4E09139
:10168000F503F091F603628180910B0490910C04B4
:10169000689F9001699F300D1124E091F303F09150
:1016A000F403B301C1010995E091F503F091F6034C
:1016B000258136813D872C874F815885440F551FE2
:1016C00058874F83B12CA12C6B817C81A616B7065D
:1016D00008F0FBC07501EE0CFF1C8F819885E80EA9
:1016E000F91EEC85FD85EE0EFF1EF70185909490A6
:1016F000FFE38F22992489819A81881A990A90920E
:10170000F8038092F703D12CC12CA0910904B09169
:101710000A048091F7039091F8038816990609F05E
:101720009AC02B813C81A216B30609F494C0F7013C
:1017300085919491BC0126E0769567952A95E1F70D
:101740006F7177277093FA036093F903892F9927B4
:1017500086958695869501969093FE038093FD036A
:10176000E091F303F091F40340910B0450910C04C9
:101770008A9EC0018B9E900D9A9E900D1124840D1F
:10178000951DC616D706C4F40091110410911204D9
:101790006C197D09649F9001659F300D749F300D19
:1017A0001124C49EB001C59E700DD49E700D1124ED
:1017B000660D771DAD010995A091F903B091FA036B
:1017C0004091FD035091FE036D01C40ED51E809122
:1017D0000B0490910C04E0910904F0910A0400912B
:1017E0000F0410911004489F9001499F300D589F9D
:1017F000300D112440910704509108044E0F5F1FD3
:10180000A89FB001A99F700DB89F700D1124660D9F
:10181000771D8E9EC0018F9E900D9E9E900D11246F
:10182000E091F303F091F403840D951D09953FEFCA
:10183000A31AB30A42E0E40EF11CF70185919491DA
:101840008F73992729813A81821B930B9093F80318
:101850008093F7035ACFE091F503F091F6032281CC
:10186000422F50E0C416D5060CF02ECF80910B0409
:1018700090910C0400911104109112044C195D090F
:10188000489F9001499F300D589F300D1124409181
:101890000704509108044A0F5B1FC89EB001C99EFF
:1018A000700DD89E700D1124660D771D8A9EC001A3
:1018B0008B9E900D9A9E900D1124E091F303F09170
:1018C000F403840D951D0995FFCE60910904709174
:1018D0000A048D819E811816190664F50091110481
:1018E00010911204E091F503F091F603428180918A
:1018F0000B0490910C04489F9001499F300D1124D6
:10190000ED81FE81E69FA001E79F500DF69F500DEF
:101910001124E985FA85E69FC001E79F900DF69FA7
:10192000900D1124E091F303F091F403B301840DC1
:10193000951D09952091070430910804488959891B
:10194000240F351F4091090450910A04249FC001BF
:10195000259F900D349F900D1124A2CA009111046F
:101960001091120480910F04909110040817190728
:1019700009F075C0F12CE12C409107045091080446
:10198000A0910904B0910A042B813C81E216F30670
:1019900089F22091F5033091F6038F8198858E0DA1
:1019A0009F1D880F991FF90125813681F901E80FE4
:1019B000F91F85919491FC01EF71FF2729813A81EC
:1019C000E21BF30BF093F803E093F7036C0175E06F
:1019D000D694C7947A95E1F72FE3C222DD24D09202
:1019E000FA03C092F903892F9927869586958695E3
:1019F00001969093FC038093FB0361E070E0709389
:101A0000FE036093FD0320910B0430910C040091C0
:101A10000F04109110048A9FB0018B9F700D9A9F44
:101A2000700D1124460F571FC29EB001C39E700D4A
:101A3000D29E700D1124660D771DEA9FC001EB9FA9
:101A4000900DFA9F900D1124E091F303F091F403AF
:101A5000840D951D09957FEFE71AF70A8DCF1E14A7
:101A60001F04ACF4E091F503F091F60362818091DC
:101A70000B0490910C04689F9001699F300D112414
:101A8000E091F303F091F403B301C1010995E091F2
:101A9000F503F091F603858196819D878C87F12C63
:101AA000E12C912C812CEB81FC813197FD8BEC8B0F
:101AB0006091090470910A042B813C81821693067F
:101AC00008F007CFEF81F885E80DF91DEE0FFF1F35
:101AD0004C855D85E40FF51FA590B490A501E5E068
:101AE00056954795EA95E1F74F7355275093FA03BA
:101AF0004093F9034E195F09423051053CF1809142
:101B00000B0490910C040091110410911204489F51
:101B10009001499F300D589F300D1124E985FA85B9
:101B2000E69FA001E79F500DF69F500D1124E89EFF
:101B3000B001E99E700DF89E700D1124660D771DA1
:101B4000E091F303F091F403C2010995E090F903E9
:101B5000F090FA03D12CC12CA0910904B0910A0491
:101B60008091F9039091FA03E816F90609F09FC0F5
:101B70002B813C818216930609F499C0C5018F71AF
:101B800099279093F8038093F703AB2CBB24A6947A
:101B9000A694A6943FEFA31AB30AB092FC03A092B6
:101BA000FB03E091F303F091F40320910B043091D7
:101BB0000C04C816D90604F5009111041091120402
:101BC0008C199D098A9FA0018B9F500D9A9F500DE3
:101BD0001124E29EB001E39E700DF29E700D11245F
:101BE000660D771DCA9EC001CB9E900DDA9E900DAA
:101BF0001124840D951D0995A091F703B091F80368
:101C00008091FB039091FC036D01C80ED91E2091B9
:101C10000B0430910C04E0910904F0910A04009146
:101C20000F04109110048E9FA0018F9F500D9E9F56
:101C3000500D11248091070490910804480F591FFA
:101C40008091F9039091FA03289FB001299F700DAC
:101C5000389F700D1124660D771DAE9FC001AF9F98
:101C6000900DBE9F900D1124E091F303F091F403C9
:101C7000840D951D09954FEF841A940AEF81F8851C
:101C8000E80DF91DEE0FFF1F6C857D85E60FF71F30
:101C9000A590B490C50125E0969587952A95E1F722
:101CA0008F7399279093FA038093F90355CF898511
:101CB0009A85C816D90644F520910B0430910C047E
:101CC00000911104109112048C199D098A9FA001A2
:101CD0008B9F500D9A9F500D1124E29EB001E39E00
:101CE000700DF29E700D1124660D771DCA9EC00105
:101CF000CB9E900DDA9E900D1124E091F303F091AC
:101D0000F403840D951D0995EC89FD89E815F90505
:101D100009F0CECEE091F503F091F603828190E0D8
:101D2000E816F9060CF0C4CEE0910B04F0910C0417
:101D300000911104109112048E199F0941E050E0A6
:101D4000E816F90614F050E040E04E9F90014F9FD6
:101D5000300D5E9F300D11248091090490910A048A
:101D600069857A85689FA001699F500D789F500D05
:101D70001124EE9EB001EF9E700DFE9E700D112499
:101D8000660D771DE091F303F091F403C20109950C
:101D90008FCE009111041091120480910F04909144
:101DA00010040817190709F070C0F12CE12C4091BC
:101DB000070450910804C0900904D0900A042B81B4
:101DC0003C81E216F30609F4B5CDA091F503B0917C
:101DD000F603EF81F885EE0DFF1D9F01220F331FE3
:101DE000E20FF31F15962D913C912E0F3F1FF90125
:101DF000A491B0E089819A81A81BB90BB093F80334
:101E0000A093F7033196E4918E2F90E09093FA031C
:101E10008093F903F9013296E491F0E03196F09362
:101E2000FE03E093FD0321E030E03093FC032093B8
:101E3000FB03A0900B04B0900C0400910F041091D0
:101E40001004EA9D9001EB9D300DFA9D300D112498
:101E50004C0D5D1D8A9DB0018B9D700D9A9D700D7E
:101E60001124660D771DAC9DC001AD9D900DBC9DEC
:101E7000900D1124E091F303F091F403840D951D6E
:101E800009953FEFE31AF30A92CFE091F503F09141
:101E9000F6031E141F048CF4628180910B04909150
:101EA0000C04689F9001699F300D1124E091F303A9
:101EB000F091F403B301C1010995E091F503F091AC
:101EC000F6038F809884880C991C8F819885880EE2
:101ED000991E85819681880E991E8B819C81880F21
:101EE000991FEB81FC81E80FF91FFC83EB83F12C38
:101EF000E12C94012F5F3F4F38872F83A4014E5F61
:101F00005F4F5D874C876B817C81E616F70608F092
:101F1000E1C0F401EE0DFF1DE491AE2EB12CB092A4
:101F2000F803A092F703D12CC12CA0910904B09121
:101F30000A048091F7039091F803A816B90609F0F6
:101F40008FC08B819C81E816F90608F089C0EF816B
:101F5000F885EE0DFF1D649170E07093FA036093B5
:101F6000F903EC85FD85EE0DFF1DE491F0E031965F
:101F7000F093FE03E093FD03E091F303F091F4038B
:101F800040910B0450910C04AA9EC001AB9E900D91
:101F9000BA9E900D1124840D951DC616D706C4F463
:101FA00000911104109112046C197D09649F900135
:101FB000659F300D749F300D1124C49EB001C59EE5
:101FC000700DD49E700D1124660D771DAD0109951D
:101FD000A091F903B091FA034091FD035091FE03E3
:101FE0006D01C40ED51E80910B0490910C04E091FC
:101FF0000904F0910A0400910F0410911004489F05
:102000009001499F300D589F300D112440910704D5
:10201000509108044E0F5F1FA89FB001A99F700D3B
:10202000B89F700D1124660D771DAE9EC001AF9E46
:10203000900DBE9E900D1124E091F303F091F403F6
:10204000840D951D099593E0E90EF11CF401EE0D48
:10205000FF1DE491F0E0F093F803E093F70365CF00
:10206000E091F503F091F6032281422F50E0C4166F
:10207000D5060CF048CF80910B0490910C04009190
:102080001104109112044C195D09489F9001499F59
:10209000300D589F300D11244091070450910804D1
:1020A0004A0F5B1FC89EB001C99E700DD89E700D6F
:1020B0001124660D771DAA9EC001AB9E900DBA9E9D
:1020C000900D1124E091F303F091F403840D951D1C
:1020D000099519CF6091090470910A04ED81FE8180
:1020E0001E161F060CF026CC00911104109112044C
:1020F000E091F503F091F603428180910B049091F9
:102100000C04489F9001499F300D11248D819E81C0
:10211000869FA001879F500D969F500D1124F9CBEB
:1021200090E080E00C9450075B855A3011F00C94DD
:1021300004072E843F84E091F503F091F603428179
:1021400020910B0430910C04429FC001439F900DDD
:1021500011242091050430910604820F931F680E0C
:10216000791E0C9404076B856A3011F40C94630794
:102170000C940407C10165960FB6F894DEBF0FBE3C
:10218000CDBFDF91CF911F910F91FF90EF90DF9026
:10219000CF90BF90AF909F908F907F906F905F9007
:1021A0004F903F902F900895089508950895AF920D
:1021B000BF92CF92DF92EF92FF920F931F93CF9334
:1021C000DF936C017B018B01040F151FEB015E0196
:1021D000AE18BF08C017D10759F06991D601ED912B
:1021E000FC910190F081E02DC6010995892B79F7CA
:1021F000C501DF91CF911F910F91FF90EF90DF907C
:10220000CF90BF90AF900895FC01538D448D252F42
:1022100030E0842F90E0821B930B541710F0CF9680
:10222000089501970895FC01918D828D981761F0B2
:10223000A28DAE0FBF2FB11D5D968C91928D9F5FC9
:102240009F73928F90E008958FEF9FEF0895FC01A8
:10225000918D828D981731F0828DE80FF11D858D5B
:1022600090E008958FEF9FEF0895FC01918D228DEE
:10227000892F90E0805C9F4F821B91098F73992773
:10228000089588E493E00E94351121E0892B09F438
:1022900020E0822F089580E090E0892B29F00E94B1
:1022A000411181110C9400000895FC01A48DA80F28
:1022B000B92FB11DA35ABF4F2C91848D90E0019688
:1022C0008F739927848FA689B7892C93A089B189A8
:1022D0008C91837080648C93938D848D981306C049
:1022E0000288F389E02D80818F7D80830895EF92AD
:1022F000FF920F931F93CF93DF93EC0181E0888FC0
:102300009B8D8C8D98131AC0E889F989808185FF8F
:1023100015C09FB7F894EE89FF896083E889F98931
:1023200080818370806480839FBF81E090E0DF9133
:10233000CF911F910F91FF90EF900895F62E0B8D86
:1023400010E00F5F1F4F0F731127E02E8C8D8E1141
:102350000CC00FB607FCFACFE889F989808185FFA8
:10236000F5CFCE010E945511F1CFEB8DEC0FFD2F73
:10237000F11DE35AFF4FF0829FB7F8940B8FEA8963
:10238000FB8980818062CFCFCF93DF93EC01888D72
:102390008823B9F0AA89BB89E889F9898C9185FDE0
:1023A00003C0808186FD0DC00FB607FCF7CF8C916E
:1023B00085FFF2CF808185FFEDCFCE010E945511C0
:1023C000E9CFDF91CF910895833081F028F48130F7
:1023D00099F08230A9F008958730A9F08830C9F0CB
:1023E0008430B1F4809180008F7D03C080918000A3
:1023F0008F7780938000089584B58F7784BD08958A
:1024000084B58F7DFBCF8091B0008F778093B00033
:1024100008958091B0008F7DF9CFCF93DF93282F5F
:1024200030E0F901E053F54F8491F901E251F54FA5
:10243000D491F901E45FF44FC491CC23A1F0811150
:102440000E94E411EC2FF0E0EE0FFF1FEA53F54F6E
:10245000A591B491EC91ED2381E090E009F480E046
:10246000DF91CF91089580E090E0FACF1F93CF9352
:10247000DF93282F30E0F901E053F54F8491F90103
:10248000E251F54FD491F901E45FF44FC491CC23AC
:10249000A9F0162F81110E94E411EC2FF0E0EE0F4D
:1024A000FF1FEE5FF44FA591B4918FB7F894EC91B4
:1024B000111108C0D095DE23DC938FBFDF91CF913F
:1024C0001F910895DE2BF8CFCF93DF9390E0FC01AE
:1024D000E251F54F2491845F944FFC01849188234D
:1024E000C9F090E0880F991FFC01EC51F54FA591C0
:1024F000B491FC01EE5FF44FC591D49161110DC010
:102500009FB7F8948C91209582238C9388812823FF
:1025100028839FBFDF91CF910895623051F49FB718
:10252000F8943C91822F809583238C93E8812E2B05
:10253000EFCF8FB7F894EC912E2B2C938FBFEACF6F
:102540003FB7F8948091C9029091CA02A091CB0242
:10255000B091CC0226B5A89B05C02F3F19F001967B
:10256000A11DB11D3FBFBA2FA92F982F8827BC01ED
:10257000CD01620F711D811D911D42E0660F771F15
:10258000881F991F4A95D1F708958F929F92AF9215
:10259000BF92CF92DF92EF92FF926B017C010E947B
:1025A000A0124B015C01C114D104E104F104B9F0A3
:1025B0000E94A012681979098A099B09683E734034
:1025C0008105910580F321E0C21AD108E108F108E4
:1025D00088EE880E83E0981EA11CB11CE4CFFF900A
:1025E000EF90DF90CF90BF90AF909F908F90089525
:1025F0002FB7F8946091C5027091C6028091C7020E
:102600009091C8022FBF0895862F642F0C946412F6
:10261000FC0181890E940D1221E0892B09F420E040
:10262000822F0895982F482F4053550B81E04A3050
:10263000510530F0903229F09D3219F080E0089574
:1026400008950895FB019EBD00C000C000C000C0F9
:1026500000C000C000C000C000008EBD00C000C0AF
:1026600000C000C000C000C00000319761F70895AD
:102670008EBD00C000C000C000C00895EF92FF9260
:102680000F931F93DC011A960D911C911B971896BE
:102690002D913C911997ED91FC9100A0F1A1E02DB5
:1026A0007B0150E040E070E060E009951F910F91E0
:1026B000FF90EF900895AF92BF92CF92DF92EF928A
:1026C000FF920F931F93CF93DF93EC01EC8CF12CCF
:1026D0005701A60EB71EE20EF31E8D8D90E06C0121
:1026E000C40ED51E080F191FEDA1FEA190818AA16D
:1026F0008095892380838AE20E943813EDA1FEA190
:1027000080819AA1892B80838B2D0E9438138A2D7A
:102710000E9438138F2D0E9438138E2D0E9438137B
:10272000EDA1FEA190818AA18095892380838BE20F
:102730000E943813EDA1FEA180819AA1892B80838C
:102740008D2D0E9438138C2D0E943813812F0E94EA
:102750003813802F0E943813EDA1FEA190818AA129
:102760008095892380838CE20E943813EDA1FEA11D
:1027700080819AA1892B8083DF91CF911F910F9146
:10278000FF90EF90DF90CF90BF90AF900895CF92E1
:10279000DF92EF92FF920F931F93CF93DF93690124
:1027A000E801DC011896ED91FC9119976E177F07EF
:1027B000E4F51A962D913C9142175307B4F51C1479
:1027C0001D049CF51C161D0684F5DB01AC0DBD1D1A
:1027D000EA17FB071CF46F01C61AD70AFA01EC0FBF
:1027E000FD1F2E173F071CF4E901C41BD50B8E01FA
:1027F000040F151F015011099601260F371F215094
:1028000031090E945B13CC9EB001CD9E700DDC9E01
:10281000700D1124C701DF91CF911F910F91FF908F
:10282000EF90DF90CF900C942213DF91CF911F9106
:102830000F91FF90EF90DF90CF900895EF92FF926D
:102840000F931F93780189019A01AB01BC0186E1C6
:1028500094E00E94C7131F910F91FF90EF9008958D
:10286000EF92FF920F931F93CF93DF93E9017801CB
:10287000DC0118962D913C9119976217730724F586
:102880001A96ED91FC914E175F07F4F41C161D0685
:10289000DCF4FB01EC0FFD1F2E173F071CF4E901D0
:1028A000C61BD70B9E01260F371F215031098A0105
:1028B0000E945B13BE01C701DF91CF911F910F9161
:1028C000FF90EF900C942213DF91CF911F910F9105
:1028D000FF90EF900895EF92FF920F931F93CF9385
:1028E000DF93E9017801FC012085318562177307C8
:1028F0001CF52285338542175307F4F41C161D0678
:10290000DCF4FA01EC0FFD1F2E173F071CF4E90160
:10291000C41BD50B8A010C0F1D1F015011099B010F
:102920000E945B13BE01C701DF91CF911F910F91F0
:10293000FF90EF900C942213DF91CF911F910F9194
:10294000FF90EF9008950F931F93CF93DF9377FD40
:1029500023C0DC011896ED91FC9119976E177F0743
:10296000DCF457FD19C01A96ED91FC914E175F07E4
:102970009CF4E9018A010F5F1F4F9B012F5F3F4FBE
:102980000E945B138D2F0E9438138C2FDF91CF9103
:102990001F910F910C943813DF91CF911F910F91DC
:1029A0000895DC01862F9596ED91FC919697908184
:1029B00092962C91922B90830C943813DC01862FE5
:1029C0009596ED91FC919697208192969C91909589
:1029D000922390830C943813611103C061E20C942C
:1029E000DE1460E2FCCF1F93CF93DF93EC01162F30
:1029F00066E30E94DE1413701D8B1230C9F0133091
:102A0000F1F0113061F060ECCE010E94D1148A8D9A
:102A10008C8F8B8D8D8FDF91CF911F91089560EA00
:102A2000CE010E94D1148A8D8D8F8B8D8C8FF3CF28
:102A300060E0CE010E94D1141C8E1D8EECCF60E6AA
:102A4000F8CF0895FC016370658B848195812681A0
:102A50003781613039F0633029F09187808733877F
:102A600022870895318720879387828708952F9240
:102A70003F924F925F926F927F928F929F92AF920E
:102A8000BF92CF92DF92EF92FF920F931F93CF935B
:102A9000DF93CDB7DEB769970FB6F894DEBF0FBEF0
:102AA000CDBF998F888F5B011A01D22E1F830E83B1
:102AB0003701C982DC0158962D913C915997211517
:102AC000310509F004C118968D919C9119976817EA
:102AD00079070CF0C0C11A968D919C911B974817ED
:102AE00059070CF0B8C18C2C912CFB0126E0C29E3A
:102AF000E00DF11D1124F987E8871E161F060CF062
:102B0000AAC1A40193E0440F551F9A95E1F75D8790
:102B10004C87CA01820D931D181619060CF09BC133
:102B200057968C91811104C05FEA5D1508F4D39427
:102B3000A88DB98DED91FC9111970284F385E02D5C
:102B4000CD010995F5013596F98BE88BBB82AA82F8
:102B5000250186EC95E08A199B099C0145E0D49EED
:102B6000200D311D11243B8B2A8BEA89FB89E40D52
:102B7000F51D24913D822C82D12CC12C622F70E056
:102B80007F876E87E88DF98DA081B18120FF7CC0A1
:102B9000F981F13009F069C01C96ED91FC912E810C
:102BA0003F81A1014C0D5D1DB201888D998D099564
:102BB000EE85FF85F595E7952E2F4FEFC41AD40AC1
:102BC0006C817D81680D791D7D836C8378E0C716EB
:102BD000D104A1F68FEF481A580AAA81BB81A80D2B
:102BE000B91DBB83AA83E889F989E415F50509F0C5
:102BF000BCCF2E813F8126153705A9F0A88DB98D50
:102C0000ED91FC91B981B13009F051C0B5016B5F14
:102C10007F4F0088F189E02D830128E030E0A10199
:102C2000888D998D0995A88DB98DED91FC9111979D
:102C30000688F789E02DCD0169960FB6F894DEBFBE
:102C40000FBECDBFDF91CF911F910F91FF90EF90FD
:102C5000DF90CF90BF90AF909F908F907F906F90BC
:102C60005F904F903F902F9009941E96ED91FC91AC
:102C7000EE80FF80840194014C815D816A817B81BB
:102C8000888D998D099594CF2E813F812615370522
:102C900009F48ECF3981313029F41C96ED91FC91E5
:102CA00093017FCF1E96ED91FC917301E3CF688570
:102CB0007985681979090684F785E02D73010C85FB
:102CC0001D859401A101888D998D0995ACCFF901DD
:102CD00034969491329745915491D91AB7E0DB9E7E
:102CE000400D511D1124F90125913491398B288B08
:102CF000FA0145905490FA01329664903196C4904E
:102D000032961491319604913981323008F48AC098
:102D1000E12E012E000CFF08402F002E000C550B59
:102D200059874887A88DB98DED91FC911197028440
:102D3000F385E02DCD010995B9818B2E912CE89C6E
:102D4000C001E99C900DF89C900D1124FC01EA0D46
:102D5000FB1DFF87EE871C82D12C712C9B868A86F7
:102D60009101200F311D07FD3A953D8B2C8BA5015C
:102D7000410F511D17FD5A955F8B4E8B7C1408F047
:102D800052CF872D90E048855985480F591F6A8595
:102D90007B85469F9001479F300D569F300D112433
:102DA000D901A20DB31DBD87AC87EE85FF85FB83DE
:102DB000EA83B12CA12C2C893D89280F391F3B8B2C
:102DC0002A8B8C818A0DA61408F040C0877041F4CC
:102DD000C2010196E889F989E40DF51DD4902C0112
:102DE000D7FE15C0A88DB98DED91FC91B981B13098
:102DF000F1F40484F585E02D2E813F814A895B89B9
:102E00006E897F896A0D7B1D888D998D0995DD0CF2
:102E1000EFEFAE1ABE0A2A813B81280D391D3B8394
:102E20002A83CFCF19861886F12CE12C7BCF06841C
:102E3000F785E02DEE80FF80840194014C855D854F
:102E40006A817B81888D998D0995E1CF3C81360D12
:102E50003C83739493CF69960FB6F894DEBF0FBE90
:102E6000CDBFDF91CF911F910F91FF90EF90DF9039
:102E7000CF90BF90AF909F908F907F906F905F901A
:102E80004F903F902F900895AF92BF92CF92EF92C4
:102E9000FF920F931F93CF93DF93EC01262F888D22
:102EA000998D009709F04FC06A30C9F41D861C86C1
:102EB0008C8998E0899F900111248E859F85820FCF
:102EC000931F9F878E8781E090E0DF91CF911F91C4
:102ED0000F91FF90EF90CF90BF90AF9008956D301D
:102EE00091F3CC888E898823C1F08C859D85E6E09E
:102EF000CE9E800D911D112448855985481759078C
:102F000064F44E855F851D861C86F8E0CF9EC00167
:102F10001124840F951F9F878E87EA88FB88088974
:102F200019894E855F856C857D85CE010E94371598
:102F30002C898C859D8536E0239F800D911D112461
:102F40009D878C87C0CF6A3069F41D861C86FC0182
:102F50003696E4912C898E859F85E29F800D911D88
:102F60001124AFCF6D3009F4AECFFC01349634910B
:102F7000631708F4A8CF3196E491E61708F4A3CFBD
:102F8000FC01329645915491E62FE31BFF0B37E08D
:102F90003E9F50013F9FB00C1124A40EB51EF501B9
:102FA000329634913196E4913323A1F1EE2391F1DD
:102FB000CC88F5013596E4914E89442301F10E2E1B
:102FC000000CFF0BE30FF11DCE9EA001CF9E500D14
:102FD00011246C857D85460F571F68857985641798
:102FE00075076CF44E855F851D861C860696FC0170
:102FF0008491C89E400D511D11245F874E87EA8839
:10300000FB88088919894E855F856C857D85CE0191
:103010000E943715F5013496E4912C898C859D85A5
:10302000E29F800D911D11248BCF6F927F928F9222
:103030009F92AF92BF92CF92DF92EF92FF920F9347
:103040001F93CF93DF93EC016B015A0139014801C3
:10305000E881F9810284F385E02D0995E881F98101
:103060000288F389E02D87019301A501B601CE0105
:103070000995A501480D591D41505109E881F98173
:103080000288F389E02D9301B601CE010995E8810C
:10309000F9810088F189E02D9401A501B601CE01E6
:1030A0000995C60CD71CB60161507109E881F981F8
:1030B0000088F189E02D9401A501CE010995E881F0
:1030C000F9810688F789E02DCE01DF91CF911F911C
:1030D0000F91FF90EF90DF90CF90BF90AF909F90B7
:1030E0008F907F906F9009946F927F928F929F92B2
:1030F000AF92BF92CF92DF92EF92FF920F931F9306
:10310000CF93DF935C01EB016A014901380187012C
:10311000DC01ED91FC916217730719F564167506D1
:103120002CF0962D872D3A01C92ED82E96012619FE
:1031300037092F5F3F4F048CF58DE02DA301BE01B1
:10314000C5010995DF91CF911F910F91FF90EF90ED
:10315000DF90CF90BF90AF909F908F907F906F90B7
:1031600008954615570591F42617370724F0892D41
:103170004B01C22FD82F9E01281939092F5F3F4FCD
:10318000068CF78DE02DA601B401DACF0284F38519
:10319000E02D0995D501ED91FC910488F589E02D8C
:1031A00083019401A601BE01C5010995D501ED91E8
:1031B000FC910688F789E02DC501DF91CF911F9121
:1031C0000F91FF90EF90DF90CF90BF90AF909F90C6
:1031D0008F907F906F900994EF92FF920F931F93BF
:1031E000DC011A960D911C911B9718962D913C911C
:1031F0001997ED91FC9100A0F1A1E02D7B0150E029
:1032000040E070E060E009951F910F91FF90EF9012
:1032100008954F925F926F927F928F929F92AF929A
:10322000BF92CF92DF92EF92FF920F931F93CF93B3
:10323000DF936C012B015A0139014801DC01ED914A
:10324000FC910284F385E02D0995E201640C751C64
:10325000D601ED91FC91C615D7055CF40088F18983
:10326000E02D87019401A501BE01C60109952196B3
:10327000EFCF0688F789E02DC601DF91CF911F912E
:103280000F91FF90EF90DF90CF90BF90AF909F9005
:103290008F907F906F905F904F9009948F929F9244
:1032A000AF92BF92CF92DF92EF92FF920F931F9354
:1032B000CF93DF93EC015B014A016901E881F98159
:1032C0000284F385E02D099595012C0D3D1D2150BB
:1032D0003109E881F9810488F589E02D78018401BC
:1032E000A401B501CE010995E881F9810688F78925
:1032F000E02DCE01DF91CF911F910F91FF90EF90C4
:10330000DF90CF90BF90AF909F908F9009948F9255
:103310009F92AF92BF92CF92DF92EF92FF920F9364
:103320001F93CF93DF93EC015B014A0169017801A0
:10333000E881F9810284F385E02D0995C80CD91C38
:10334000860101501109E881F9810488F589E02D91
:103350009501A401B501CE010995E881F98106889E
:10336000F789E02DCE01DF91CF911F910F91FF9052
:10337000EF90DF90CF90BF90AF909F908F90099487
:103380000895EF92FF920F931F93DC01ED91FC9152
:1033900000A0F1A1E02D09951F910F91FF90EF90F2
:1033A00008950F931F93DC01ED91FC91068CF78D2E
:1033B000E02D09951F910F9108950F931F93DC0144
:1033C000ED91FC91048CF58DE02D09951F910F91E5
:1033D0000895DC01ED91FC910084F185E02D0994C4
:1033E0002F923F924F925F926F927F928F929F9215
:1033F000AF92BF92CF92DF92EF92FF920F931F9303
:10340000CF93DF9300D000D000D0CDB7DEB73C0122
:103410006A013E832D83FC82EB825801A41AB50A0F
:10342000B7FE03C0B194A194B1088D809E80861A26
:10343000970A97FE03C09194819491088A149B0483
:103440005CF0902F812F0D811E819D838E839C2D9A
:103450008D2D6B01692F782F0C151D055CF09D815A
:103460008E817E836D83692F782F902F812F860127
:10347000C92ED82E1601201A310A2B012D813E812A
:10348000421A530A57FE03C05194419451087101E6
:1034900037FE03C03FEFE31AF30AF594E7948D81FA
:1034A0009E81861797075CF5A1E0B0E0BA83A983F7
:1034B000C016D1064CF1D301ED91FC910484F58541
:1034C000E02D2B813C81A8016D817E818A149B04B3
:1034D0001CF04D815E81B801C3010995E418F5081F
:1034E000F7FE0AC02D813E8189819A81280F391FFC
:1034F0003E832D83E20CF31C0F5F1F4FD9CF2FEFBC
:103500003FEF3A832983D4CF26960FB6F894DEBFD7
:103510000FBECDBFDF91CF911F910F91FF90EF9024
:10352000DF90CF90BF90AF909F908F907F906F90E3
:103530005F904F903F902F9008952091A102260F09
:103540003327331F21323105ECF420911E03FC0197
:1035500090E080E0243069F082E00895A091A1021B
:103560002191AC014F575D4FA40FB52FB11D2C9386
:103570000196861798F38091A102680F6093A102CB
:1035800080E0089581E0089510921E0381E0809309
:103590001D031092F80261E082E10E94361261E0A0
:1035A00083E10E943612E9EBF0E080818E7F808318
:1035B00080818D7F808388E48093B80085E4809348
:1035C000BC000895CF93DF9391E09093800288230D
:1035D000B9F0C091B800D091BA008091BC008A7B4C
:1035E0008093BC0060E082E10E94361260E083E1DB
:1035F0000E9436120E94C41AD093BA00C093B80039
:10360000DF91CF9108958F929F92AF92BF92CF9208
:10361000DF92EF92FF920F931F93CF93DF93D0919E
:103620004703D13208F0D7C0182FC09146030E943B
:10363000A0126B017C0180911E0381116BC082E09E
:1036400080931E0310931D038FEF80931C03109231
:103650001B03D0931A03A6E2B3E0EAEFF2E080E0A6
:10366000D81391C01092F9028091F902CC0FC82BA7
:10367000C093F9028091F802813009F088C010925D
:10368000F8020E94A0126B017C018091F9028093E4
:10369000BB008091200390912103A0912203B0915F
:1036A0002303892B8A2B8B2BA1F00E94A01200915F
:1036B00020031091210320912203309123036C19E0
:1036C0007D098E099F09061717072807390708F48F
:1036D00042C08091BC0083FDD8CF85EC8093BC00B4
:1036E0000E94A0126B017C0180911E03823009F4BC
:1036F00050C080911C038F3F09F46FC080911C0360
:10370000803209F46CC080911C03803309F469C0D5
:1037100084E026C08091200390912103A091220390
:10372000B0912303892B8A2B8B2B09F484CF0E9421
:10373000A0128090200390902103A0902203B090CB
:1037400023036C197D098E099F0986169706A80622
:10375000B90608F070CF80911F030E94E21A85E03D
:10376000109225031092470310922403DF91CF910A
:103770001F910F91FF90EF90DF90CF90BF90AF908F
:103780009F908F9008959D9191938F5F69CF85EE63
:10379000A5CF8091200390912103A0912203B091A5
:1037A0002303892B8A2B8B2B09F49ECF0E94A01216
:1037B00000912003109121032091220330912303D3
:1037C0006C197D098E099F09061717072807390705
:1037D00008F08ACFC0CF81E0C3CF80E0C1CF82E0C4
:1037E000BFCF83E0BDCFE091D2028091D102E81734
:1037F00030F4F0E0E05AFD4F808190E008958FEFC3
:103800009FEF08959091D2028091D1022FEF3FEF68
:10381000981748F4E92FF0E0E05AFD4F208130E09E
:103820009F5F9093D202C90108958091D102909137
:10383000D202891B990B0895CF92DF92EF92FF92EB
:103840000F931F93CF93DF937C01CB018A012091CB
:103850002403222389F0EB016B01C40ED51ECC1585
:10386000DD0569F06991D701ED91FC910190F0813E
:10387000E02DC7010995F3CF642F0E949D1AC8015E
:10388000DF91CF911F910F91FF90EF90DF90CF903C
:103890000895CF93DF931F92CDB7DEB76983209150
:1038A00024032223F9F020914703203258F021E02D
:1038B00030E0FC013383228390E080E00F90DF91C1
:1038C000CF91089580912503E82FF0E0EA5DFC4F49
:1038D000998190838F5F809325038093470381E0D4
:1038E00090E0ECCF61E0CE0101960E949D1AF7CFE7
:1038F000CF93DF93EA0191E09093240380934603F2
:10390000109225031092470385EE93E00E94491C14
:10391000688185EE93E00E94491C81E00E94031BB0
:1039200091E0811190E0892FDF91CF91089590E08F
:1039300080E00895CF93DF93EA0191E09093240310
:1039400080934603109225031092470385EE93E07F
:103950000E94491C6D2F85EE93E00E94491C6C2F3C
:1039600085EE93E00E94491C81E00E94031B91E0D8
:10397000811190E0892FDF91CF91089560EE77E07B
:1039800086E194E00E943E13E1EFF3E0178A168A85
:1039900083E090E0938F828F918F808F178E168EA9
:1039A00080EE97E091A380A348E951E06CE370E0DA
:1039B0008EEF9FEF0C94C8062F923F924F925F922A
:1039C0006F927F928F929F92AF92BF92CF92DF922F
:1039D000EF92FF920F931F93CF93DF93CDB7DEB794
:1039E0002B970FB6F894DEBF0FBECDBFE82ED62EB4
:1039F000F42E3D832C8318010E94F8124B015C01C8
:103A00002E2D220F2B830F2DC12C1B8611E04F2D45
:103A100050E05A834983C101B0E0A0E08E839F83C8
:103A2000A887B98710932403E092460310922503D8
:103A3000109247036D2D85EE93E00E94491C81E0B2
:103A40000E94031B10932403109225031092470336
:103A50000E94A0122B013C0180911E0381116DC0B8
:103A60000A87013210F090E29A8710931E03109398
:103A70001D03AFEFA0931C0310921B038A85815096
:103A800080931A031093F9028091F902BB818B2B6A
:103A90008093F9028091F802813009F091C0109270
:103AA000F8020E94A0122B013C018091F902809340
:103AB000BB008091200390912103A0912203B0913B
:103AC0002303892B8A2B8B2BA1F00E94A01220911B
:103AD0002003309121034091220350912303641964
:103AE000750986099709261737074807590708F403
:103AF00045C08091BC0083FDD8CF25EC2093BC004D
:103B00000E94A0122B013C0180911E03813009F418
:103B10005BC080911B034A85841718F450911B03E6
:103B20005A87AAEFB2E0E0E6F2E080E09A858917D2
:103B300051F19D9191938F5FF9CF809120039091E6
:103B40002103A0912203B0912303892B8A2B8B2B75
:103B500009F482CF0E94A01220912003309121030A
:103B6000409122035091230364197509860997092E
:103B7000261737074807590708F06ECF80911F03B3
:103B80000E94E21A1A861092D202AA85A093D1024C
:103B90008091D202BA85B81709F448C021143104C3
:103BA000A9F585EE93E00E94021CEC81FD812B8536
:103BB000E20FF11D27FDFA9580832F5F2B87E8CF59
:103BC00035EE3093BC009CCF80912003909121036F
:103BD000A0912203B0912303892B8A2B8B2B09F40C
:103BE00093CF0E94A0122091200330912103409195
:103BF0002203509123036419750986099709261732
:103C000037074807590708F07FCFB8CF0E94F8124E
:103C1000681979098A099B092E813F814885598550
:103C2000621773078407950708F4BBCFCF0C0F19F1
:103C3000CF1408F4F7CE21143104D9F00E94F81201
:103C4000AB01BC01481959096A097B09C101B0E0FF
:103C5000A0E0481759076A077B0758F03B85832F78
:103C6000330F990B49815A818417950714F45FEF3C
:103C70005B878B852B960FB6F894DEBF0FBECDBF4A
:103C8000DF91CF911F910F91FF90EF90DF90CF9038
:103C9000BF90AF909F908F907F906F905F904F906C
:103CA0003F902F9008950F931F93CF93DF93CDE311
:103CB000D4E008EE13E02EE334E04EE06BE38881BD
:103CC0000E94DC1C89819A819827892798279093E4
:103CD000F7028093F6028B819C8198278927982789
:103CE0009093F5028093F4028D819E819827892715
:103CF00098279093F3028093F20289859A859827FA
:103D0000892798279093F1028093F0028B859C85F8
:103D10009827892798279093EF028093EE028D854C
:103D20009E859827892798279093ED028093EC022F
:103D3000DF91CF911F910F9108950F931F93CF9310
:103D4000DF931F92CDB7DEB708EE13E09E012F5F21
:103D50003F4F41E065E780913D040E94DC1C8823D1
:103D600039F089818E7790E09595879580933E0410
:103D700080913E040F90DF91CF911F910F91089594
:103D8000CF93DF93EC010E949D1E6DE7883308F40A
:103D90006AE0AE0180913D04DF91CF910C949A1CB2
:103DA000CF93DF93EC010E949D1E6AE7883308F4ED
:103DB00068E0AE0180913D04DF91CF910C949A1C94
:103DC000CF93DF93EC010E949D1E67E7883308F4D0
:103DD00066E0AE0180913D04DF91CF910C949A1C76
:103DE000BF92CF92DF92EF92FF920F931F93CF93E8
:103DF000DF9300D0CDB7DEB7F82EE62EC42EB22E5C
:103E0000D02E08EE13E09E012E5F3F4F41E00E944E
:103E1000DC1C882399F18C2D8B19990BAC014F5F19
:103E20005F4F81E090E002C0880F991FBA94E2F7DB
:103E30000197042E01C0880F0A94EAF70D2D01C0E6
:103E4000000F4A95EAF7982F90952A8192238023B4
:103E5000892B8A838983AE014F5F5F4F6E2D8F2D33
:103E60000E94781C0F900F90DF91CF911F910F91BE
:103E7000FF90EF90DF90CF90BF90089580E0F2CF59
:103E80000E94E43ACF93DF93EC01888199810097F7
:103E900011F00E949E39198218821D821C821B8299
:103EA0001A82DF91CF910895FC0180819181009762
:103EB00011F00C949E3908950F931F93CF93DF93C5
:103EC0008C01EB01FC01808191810097E1F0688118
:103ED000798161157105A9F0428153812C813D8161
:103EE0004217530770F00E94FB3A8C819D81F801C4
:103EF000958384831D821C82DF91CF911F910F9146
:103F000008950E949E3988819981F8019183808368
:103F10008A819B81938382838C819D819583848315
:103F2000198218821B821A82E5CF0F931F93CF93B9
:103F3000DF93EC0188819981009759F02A813B81B8
:103F40002617370730F081E0DF91CF911F910F9155
:103F500008958B016F5F7F4F0E94273A009759F0B9
:103F6000998388831B830A832C813D81232B59F7F6
:103F7000FC011082E8CF80E0E7CFEF92FF920F9331
:103F80001F93CF93DF93EC017B018A01BA010E945A
:103F9000951F81110BC0CE010E94421FCE01DF91FF
:103FA000CF911F910F91FF90EF9008951D830C8387
:103FB000B701888199810E94FB3AF0CFCF93DF93BC
:103FC000EC01FB018617970749F06081718161154B
:103FD000710541F0448155810E94BD1FCE01DF91E2
:103FE000CF9108950E94421FF9CF85ED8093BC00C8
:103FF0008091200390912103A0912203B09123038B
:104000000796A11DB11D23E0B695A79597958795B5
:104010002A95D1F72091BC0024FD03C010921E0305
:1040200008954091200350912103609122037091E3
:104030002303452B462B472B69F30097A105B105B8
:1040400041F025E32A95F1F700000197A109B10994
:10405000E1CF80911F030C94E21AFF920F931F93FC
:10406000CF93DF93EC018B01FB01F0800E94ED35D3
:10407000F81621F06F2DCE010E94F535F801F18080
:104080002196CE010E94ED35F81621F06F2DCE015C
:104090000E94F535C801DF91CF911F910F91FF90DC
:1040A00008950F931F93CF93DF938C01EB010E9430
:1040B000ED358883C80101960E94ED358983CE01D4
:1040C000DF91CF911F910F9108954F925F926F9260
:1040D0007F928F929F92AF92BF92CF92DF92EF9298
:1040E000FF920F931F93CF93DF93CDB7DEB7A797C0
:1040F0000FB6F894DEBF0FBECDBF7C012A013B0195
:104100005901FC01118210821382128215821482DD
:1041100050E040E067EA71E00E94BD1FCE010196C9
:104120006C011BA21AA21DA21CA21FA21EA201307A
:10413000110509F061C08C0121E043E0C301B20127
:104140000E943F32009771F0FC0101900020E9F7D6
:104150003197AF01481B590BBC01CE0182960E94DA
:10416000BD1F04C0CE0182960E94421FBE016E5D3B
:104170007F4FC7010E945C1FCE0182960E94541F90
:10418000F701848195818A159B0508F04CC01A823D
:1041900019821C821B821E821D8241E050E066EA69
:1041A00071E0C6010E94BD1FF701808091808114DB
:1041B0009104A9F10481158101151105A9F08D81E2
:1041C0009E81080F191FB801C6010E94951F882300
:1041D00031F129813A818D819E81B401820F931F33
:1041E0000E94FB3A1E830D83B601C7010E94DE1FA9
:1041F000C6010E94541FC4CFC301B2010E94CC3734
:10420000CB014AE0B6010E945D32F6010190002028
:10421000E9F73197AF014C195D09B6019ECFC60190
:104220000E94421FE1CFC701A7960FB6F894DEBFE8
:104230000FBECDBFDF91CF911F910F91FF90EF90F7
:10424000DF90CF90BF90AF909F908F907F906F90B6
:104250005F904F9008952F923F924F925F926F928E
:104260007F928F929F92AF92BF92CF92DF92EF9206
:10427000FF920F931F93CF93DF93CDB7DEB7C35752
:10428000D1090FB6F894DEBF0FBECDBF562E472E14
:10429000382E292E922EE2963FAFE297E3964FAF4B
:1042A000E397E4965FAFE4973801AD961FAE1EAE7C
:1042B000AD97AF961FAE1EAEAF97E1961FAE1EAE86
:1042C000E19750E040E067EA71E0CE0185599F4FE9
:1042D0000E94BD1F87019301492DE2965FADE297D1
:1042E000E3966FADE397E4967FADE497CE018B59EB
:1042F0009F4F0E9465209301452D542D632D722DF3
:10430000CE0101960E9465202D813E81AB968EAD37
:104310009FADAB972817390709F045C089819A816D
:10432000A7966EAD7FADA797009781F161157105D6
:1043300031F4232BD1F1FC01808190E032C00E9446
:10434000F23A2FC0A7962EAD3FADA797AB968EAD94
:104350009FADAB9765EA71E0820F931F0E94FB3A15
:10436000AB96FFAEEEAEAB975EC0AD966EAD7FADD9
:10437000AD97A701CE0101960E94023BE1E0F0E07B
:10438000EC0FFD1FEE0DFF1D10826BC06115710556
:1043900061F0232B51F0FB01808190E09195819594
:1043A0009109892B11F088248394CE0101960E94F3
:1043B000541FCE018B599F4F0E94541F882009F42F
:1043C00075C087019301452D542D632D722DCE01AB
:1043D00001960E946520A7961FAE1EAEA797A996CC
:1043E0001FAE1EAEA997AB961FAE1EAEAB97BE0119
:1043F0006F5F7F4FCE018B599F4F0E94DE1FAB96A0
:10440000EEACFFACAB97F2E0EF0EF11CB701CE01C2
:104410008B599F4F0E94951F811194CFCE018B59CC
:104420009F4F0E94421FBE016B597F4FCE0185599D
:104430009F4F0E94DE1FCE018B599F4F0E94541F39
:10444000CE0101960E94541FE196EEACFFACE197BD
:104450008FEFE816F80629F0E114F10409F085CF92
:104460001982C857DF4F88819981C858D0409093EE
:10447000100480930F04C657DF4F88819981CA5872
:10448000D0409093120480931104AE014F5F5F4FB0
:10449000B501C6010E94C806952CE2964FAEE29780
:1044A000E3963FAEE397E4962FAEE497CE018559AD
:1044B0009F4F0E94541F692DE2967FADE297E396CD
:1044C0008FADE397E4969FADE497CD58DF4F0FB6DD
:1044D000F894DEBF0FBECDBFDF91CF911F910F913A
:1044E000FF90EF90DF90CF90BF90AF909F908F9014
:1044F0007F906F905F904F903F902F9008954F92D4
:104500005F926F927F928F929F92AF92BF92CF9263
:10451000DF92EF92FF920F931F93CF93DF93CDB76C
:10452000DEB76C970FB6F894DEBF0FBECDBF198211
:104530001A821B821C82198A1A8A1B8A1C8A1D8A6B
:104540001E8A1F8A188E1D821E821F821886198657
:104550001A861B861C861D861E861F86188A412C7D
:10456000512C320127E0922EC301B2010E94D034B7
:10457000698F7A8F8B8F9C8F20E030E040E85FE37B
:104580000E947C369B01AC019F9280EE8F9388EF56
:104590008F931F928824839486E9A82EB12C9EE1E4
:1045A000C92ED12CF12CE12C0AE010E0698D7A8D16
:1045B0008B8D9C8D0E942B210E94531E0F900F907B
:1045C0000F900F9025E642165104610471040CF41B
:1045D000D4C08091F6029091F702092E000CAA0B2C
:1045E000BB0B2D853E854F855889280F391F4A1FE3
:1045F0005B1F2D873E874F87588B8091F4029091E7
:10460000F502092E000CAA0BBB0B29853A854B85B8
:104610005C85280F391F4A1F5B1F29873A874B8704
:104620005C878091F2029091F302092E000CAA0B94
:10463000BB0B2D813E814F815885280F391F4A1FA2
:104640005B1F2D833E834F8358878091F0029091AA
:10465000F102092E000CAA0BBB0B2D893E894F8954
:10466000588D280F391F4A1F5B1F2D8B3E8B4F8B98
:10467000588F8091EE029091EF02092E000CAA0B48
:10468000BB0B29893A894B895C89280F391F4A1F3E
:104690005B1F298B3A8B4B8B5C8B8091EC0290914A
:1046A000ED02092E000CAA0BBB0B29813A814B812C
:1046B0005C81280F391F4A1F5B1F29833A834B8374
:1046C0005C833CE4431634E053066104710409F052
:1046D00054C06D857E858F85988928EE33E040E053
:1046E00050E00E94033630935F0220935E0269859A
:1046F0007A858B859C8528EE33E040E050E00E946F
:10470000033630935D0220935C026D817E818F8140
:10471000988528EE33E040E050E00E940336309365
:104720005B0220935A026D897E898F89988D28EECD
:1047300033E040E050E00E9403363093590220936A
:10474000580269897A898B899C8928EE33E040E098
:1047500050E00E940336309357022093560269813D
:104760007A818B819C8128EE33E040E050E00E940A
:10477000033630935502209354024FEF441A540AE3
:10478000640A740A62E070E080E090E00E94C51262
:104790005DE4451654E055066104710409F0E4CE69
:1047A0006C960FB6F894DEBF0FBECDBFDF91CF91F0
:1047B0001F910F91FF90EF90DF90CF90BF90AF903F
:1047C0009F908F907F906F905F904F9008956F9221
:1047D0007F928F929F92AF92BF92CF92DF92EF9291
:1047E000FF920F931F93CF93DF9381E090E090931C
:1047F00008048093070482E090E090930C04809377
:104800000B0490930A048093090480E098EF90933E
:104810001204809311049093100480930F0448EACB
:1048200051E064E670E08EEF9FEF0E94C80644EB13
:1048300051E068E770E08EEF9FEF0E94C80690E0BD
:1048400080E00E94E01E90E080E00E94D01E90E098
:1048500080E00E94C01E50E040E063E180913D0492
:104860000E949A1C50E040E065E180913D040E9466
:104870009A1C50E040E067E180913D040E949A1C40
:104880000E947F2268EE73E080E090E00E94C512F3
:1048900080915E0290915F0297FD079653E0959597
:1048A00087955A95E1F79195819591099093DF024B
:1048B0008093DE0280915C0290915D0297FD0796E5
:1048C00043E0959587954A95E1F7919581959109F2
:1048D0009093DD028093DC0220915A0230915B02BA
:1048E00080E090E4821B930B97FD079633E095954B
:1048F00087953A95E1F79093DB028093DA028091F5
:1049000058029091590297FD039695958795959534
:1049100087959195819591099093D9028093D802BA
:10492000809156029091570297FD03969595879531
:10493000959587959195819591099093D70280934C
:10494000D602809154029091550297FD0396959559
:104950008795959587959195819591099093D50225
:104960008093D402C7E09C2ED0EE7D2E1FE1612EF5
:10497000C0E0D0E49F927F921F926F92882483942C
:10498000FAEAAF2EB12CA4E6CA2ED12CF12CE12CE0
:1049900002E010E020E030E040E85FE360E070E03B
:1049A000CB010E942B218091DE029091DF020E94B8
:1049B000E01E8091DC029091DD020E94D01E809169
:1049C000DA029091DB020E94C01E4091D802509101
:1049D000D90263E180913D040E949A1C4091D60265
:1049E0005091D70265E180913D040E949A1C40914C
:1049F000D4025091D50267E180913D040E949A1C37
:104A00000E947F2280915E0290915F029C0197FF3D
:104A100004C022273327281B390B0F900F900F90CB
:104A20000F90293031050CF41FC197FD0796E3E084
:104A300095958795EA95E1F72091DE023091DF02A6
:104A4000281B390B3093DF022093DE0230E020E098
:104A500080915C0290915D02AC0197FF04C04427F5
:104A60005527481B590B493051050CF000C12F5FE9
:104A70003F4F40915A0250915B02CE01841B950B2F
:104A80005054181619060CF4AC01493051050CF0BD
:104A900000C12F5F3F4F8091580290915902AC01A5
:104AA00097FF04C044275527481B590B4230510536
:104AB0000CF001C12F5F3F4F809156029091570239
:104AC000AC0197FF04C044275527481B590B4230BF
:104AD00051050CF0FFC02F5F3F4F80915402909121
:104AE0005502AC0197FF04C044275527481B590BBA
:104AF000423051050CF0FDC02530310509F03ACFA8
:104B000068EE73E080E090E00E94C5120E947F2270
:104B10008091DE029091DF020E94E01E8091DC0213
:104B20009091DD020E94D01E8091DA029091DB020A
:104B30000E94C01E4091D8025091D90263E1809139
:104B40003D040E949A1C4091D6025091D70265E123
:104B500080913D040E949A1C4091D4025091D5024C
:104B600067E180913D040E949A1C80EEE82E87E068
:104B7000F82E0CE810E020EF30E044E650E070E062
:104B800060E086E194E00E94C71381E090E090939A
:104B900008048093070482E090E090930C048093D3
:104BA0000B0490930A048093090480E098EF90939B
:104BB0001204809311049093100480930F044FEB20
:104BC00051E064E670E08EEF9FEF0E94C80646EC6D
:104BD00051E068E770E08EEF9FEF0E94C80642ED5B
:104BE00051E06CE870E08EEF9FEF0E94C8066EED1A
:104BF00072E090E080E00E942D206CED72E084E095
:104C000090E00E942D206AED72E088E090E00E9422
:104C10002D2068ED72E08CE090E00E942D2066ED82
:104C200072E080E190E00E942D2064ED72E084E16A
:104C300090E00E942D2020EF30E044E650E070E04C
:104C400060E086E194E00E94C713DF91CF911F914D
:104C50000F91FF90EF90DF90CF90BF90AF909F901B
:104C60008F907F906F90089521E030E0F1CE97FD16
:104C7000079673E0959587957A95E1F74091DC0268
:104C80005091DD02481B590B5093DD024093DC022A
:104C9000F0CE97FD079663E0959587956A95E1F7C5
:104CA0004091DA025091DB02840F951F9093DB0252
:104CB0008093DA02F0CE97FD019695958795409105
:104CC000D8025091D902481B590B5093D9024093F6
:104CD000D802F2CE97FD0196959587954091D60220
:104CE0005091D702481B590B5093D7024093D602DC
:104CF000F4CE97FD0196959587952091D402309139
:104D0000D502281B390B3093D5022093D40232CE22
:104D10008F929F92AF92BF92CF92DF92EF92FF92CB
:104D20000F931F93CF93DF930E94F81200914802D4
:104D30001091490220914A0230914B02601B710B85
:104D4000820B930B6B3071058105910508F447C107
:104D50000E94F812609348027093490280934A02BD
:104D600090934B020E94531E6091F2027091F302E5
:104D7000072E000C880B990B0E94D0346B017C012C
:104D80006091F6027091F702072E000C880B990BC8
:104D90000E94D034A70196010E94FB364B015C01B2
:104DA0006091EE027091EF02072E000C880B990BB8
:104DB0000E94D0342AE037ED43E25CE30E942F35B5
:104DC00020E030E043E053E40E945A372091500243
:104DD0003091510240915202509153020E947C3610
:104DE00028E431EE4AE75FE30E942F356B017C0136
:104DF0002AE037ED43EA5CE3C501B4010E942F3598
:104E000020E030E044E353E40E942F352BED3FE0F7
:104E100049E450E40E945A379B01AC01C701B60136
:104E20000E947C369B01AC012093500230935102CA
:104E3000409352025093530260914C0270914D0284
:104E400080914E0290914F020E947B3620E030E02C
:104E500044E353E40E947C3620E030E044EB53E42A
:104E60000E940D386B017C0120E030E0A9010E9416
:104E7000C93420E030E044E353E487FFBDC0C701FC
:104E8000B6010E947C366093E4027093E502809341
:104E9000E6029093E7020091E4021091E502D091BE
:104EA000E602C091E7022BED3FE049E450E4B8018F
:104EB0008D2F9C2F0E942F3520E030E044E353E4F7
:104EC0000E945A370E9498382091090130910A01B6
:104ED00040910B0150910C010E942F356B017C0118
:104EE000CB01D7018093E0029093E102A093E2020C
:104EF000B093E30280901D0190901E01A0901F01CD
:104F0000B09020019401A501B601C7010E94C934E7
:104F100087FF02C046015701C401D50180931D01DE
:104F200090931E01A0931F01B09320018090150162
:104F300090901601A0901701B09018019401A5015E
:104F4000B601C7010E948B38181614F06401750170
:104F5000C601D7018093150190931601A093170104
:104F6000B0931801C0903101D0903201E09033012C
:104F7000F09034019601A701B8018D2F9C2F0E945B
:104F8000C93487FF03C06801ED2EFC2EC601D7018E
:104F90008093310190933201A0933301B093340197
:104FA000C0902901D0902A01E0902B01F0902C01B3
:104FB0009601A701B8018D2F9C2F0E948B381816DF
:104FC0001CF08601DE2DCF2DC801AD2FBC2F8093A4
:104FD000290190932A01A0932B01B0932C01DF911A
:104FE000CF911F910F91FF90EF90DF90CF90BF90E6
:104FF000AF909F908F900895C701B6010E947B36B5
:1050000042CF0F931F93CF93DF93C1EFD3E001E023
:1050100010E01F8B0E8B82E090E09B8F8A8F998F20
:10502000888F80E098EF99A388A39F8F8E8F49ED9A
:1050300051E064E670E08EEF9FEF0E94C80648EEF4
:1050400051E068E770E08EEF9FEF0E94C8061B8F6B
:105050000A8F198F088F1F8A1E8A64EF71E080E023
:1050600090E00E94C5120E94882680915002909183
:105070005102A0915202B091530280934C0290933E
:105080004D02A0934E02B0934F0264EF71E080E0B6
:1050900090E00E94C5120E94882680E090E0A8E47B
:1050A000B3E480931D0190931E01A0931F01B09360
:1050B000200140E050E068E473EC40931501509308
:1050C000160160931701709318018093310190933A
:1050D0003201A0933301B0933401409329015093DE
:1050E0002A0160932B0170932C0140E050E060E0B6
:1050F00070E440930D0150930E0160930F01709383
:1051000010018093250190932601A0932701B0936D
:105110002801DF91CF911F910F9108951F920F9257
:105120000FB60F9211242F933F934F935F936F937A
:105130007F938F939F93AF93BF93EF93FF9388E4F5
:1051400093E00E945511FF91EF91BF91AF919F9114
:105150008F917F916F915F914F913F912F910F9020
:105160000FBE0F901F9018951F920F920FB60F92BF
:1051700011242F938F939F93EF93FF93E091580304
:10518000F09159038081E0915E03F0915F0382FD0D
:105190001BC09081809161038F5F8F7320916203A8
:1051A000821741F0E0916103F0E0E85BFC4F958FDE
:1051B00080936103FF91EF919F918F912F910F90B9
:1051C0000FBE0F901F9018958081F4CF1F920F9201
:1051D0000FB60F9211242F933F938F939F93AF930A
:1051E000BF938091C5029091C602A091C702B09171
:1051F000C8023091C40223E0230F2D3758F50196E1
:10520000A11DB11D2093C4028093C5029093C602D4
:10521000A093C702B093C8028091C9029091CA02BC
:10522000A091CB02B091CC020196A11DB11D80933B
:10523000C9029093CA02A093CB02B093CC02BF9153
:10524000AF919F918F913F912F910F900FBE0F9033
:105250001F90189526E8230F0296A11DB11DD2CFED
:105260001F920F920FB60F9211242F933F934F93DB
:105270005F936F937F938F939F93AF93BF93EF93BE
:10528000FF938091B900887F803609F44AC0F0F519
:10529000883209F4A7C018F5803109F49BC0B8F42E
:1052A000882309F4F9C0883009F494C0FF91EF9184
:1052B000BF91AF919F918F917F916F915F914F912E
:1052C0003F912F910F900FBE0F901F90189588312E
:1052D00009F488C0803251F780931C0314C08034D5
:1052E00009F49DC040F48033B9F38833F9F6809314
:1052F0001C0385ECB0C0803509F485C0883509F4FD
:1053000096C0883499F60E94F51FD0CF883909F4E9
:105310008CC038F5883729F050F4883611F0803782
:1053200029F683E080931E031092C30257C0883889
:1053300009F47BC0803919F0803809F0B7CF80912B
:10534000C302803208F071C0E091C30281E08E0F89
:105350008093C3028091BB00F0E0ED55FD4F808348
:105360003DC0803B39F0E0F4803A09F479C0883AD6
:1053700009F09CCF84E080931E031092A202109249
:10538000A102E091CF02F091D00209958091A10293
:1053900081110FC081E08093A1021092810209C0A7
:1053A000803C09F4A6CF883C09F4A3CF883B09F0E0
:1053B0007DCFE091A20281E08E0F8093A202F0E007
:1053C000EF57FD4F80818093BB009091A2028091A6
:1053D000A10229C08091F9028093BB0085EC8093E3
:1053E000BC0064CF90911B0380911A03981758F565
:1053F000E0911B0381E08E0F80931B03F0E0E650E9
:10540000FD4F8081E9CFE0911B0381E08E0F8093F7
:105410001B038091BB00F0E0E650FD4F808390912C
:105420001B0380911A039817C8F285E8D8CFE09142
:105430001B0381E08E0F80931B038091BB00F0E083
:10544000E650FD4F808380911D0381115CCF81E088
:105450008093F80284EA8093BC0010921E0326CF4A
:1054600085EC8093BC0010921E038091C3028032B1
:1054700030F4E091C302F0E0ED55FD4F10826091F1
:10548000C30270E0E091CD02F091CE0283EA92E097
:1054900009951092C3020ACF10921C0334CFE8E49E
:1054A000F3E01382128288EE93E0A0E0B0E0848300
:1054B0009583A683B78324E431E03183208325ECF0
:1054C00030E03587248724EC30E03787268720ECCE
:1054D00030E0318B208B21EC30E0338B228B22ECBF
:1054E00030E0358B248B26EC30E0378B268B118E09
:1054F000128E138E148EE5EEF3E0138212828483F3
:105500009583A683B78386E591E091838083ECE45D
:10551000F4E01786108A118A128A158A84E991E0CC
:1055200096878587168E83E290E0948B838B86E93D
:1055300090E09583848384EF91E09783868321E0D4
:10554000248710821182128213821186108613869C
:10555000128688E680933D04E6E1F4E0138212822D
:1055600080EF90E0958384839783868391878087FB
:1055700093878287158A1586148617861686248B4C
:105580008FEF9FEF938B828B918B808B268B178A6B
:10559000118E108E88E691E0918380838FEF868F45
:1055A00087E0878F88E080A3E1EFF3E081E090E07F
:1055B000938B828B158A148A178A168A918F808F13
:1055C000938F828F158E148E978F868F91A380A3D1
:1055D0000895CF93DF93CDB7DEB72D970FB6F8942C
:1055E000DEBF0FBECDBF789484B5826084BD84B524
:1055F000816084BD85B5826085BD85B5816085BDCE
:1056000080916E00816080936E0010928100809185
:10561000810082608093810080918100816080930D
:105620008100809180008160809380008091B10032
:1056300084608093B1008091B00081608093B0005D
:1056400080917A00846080937A0080917A008260F1
:1056500080937A0080917A00816080937A008091B3
:105660007A00806880937A001092C100E09158031C
:10567000F091590382E08083E0915403F091550347
:105680001082E0915603F09157038FEC80831092C3
:105690006003E0915C03F0915D0386E08083E0911C
:1056A0005A03F0915B03808180618083E0915A030B
:1056B000F0915B03808188608083E0915A03F091D0
:1056C0005B03808180688083E0915A03F0915B03E3
:1056D00080818F7D80831092D2021092D10210922D
:1056E0002503109247030E94C41A84ED90E1909321
:1056F000D0028093CF0285ED90E19093CE0280930B
:10570000CD0261E0809135040E94641280913504DD
:10571000082E000C990BFC01E45FF44FE491F0E0DB
:10572000EE0FFF1FEE5FF44F2591349130933C0450
:1057300020933B04FC01E251F54FE491E0933804DF
:105740001FB7F8948091D302811127C0E6E1FBE0F6
:105750008491E8EFFAE09491E82FF0E0EE0FFF1F5C
:10576000EC51F54FA591B491EC91E92321F461E05E
:105770008AE00E94361261E08AE00E9464128CB5D1
:1057800080618CBD8CB580648CBD61E08DE00E9431
:10579000641261E08BE00E9464128091D3028F5FFB
:1057A0008093D3021FBF8CB58C7F8CBD8DB581607B
:1057B0008DBD8CB58C608CBD809136048F3F21F1FE
:1057C00061E00E94641261E0809136040E9436120A
:1057D00062E370E080E090E00E94C51260E080919A
:1057E00036040E94361262E370E080E090E00E948E
:1057F000C51261E0809136040E94361262E370E0C7
:1058000080E090E00E94C5121092300480E5809301
:105810003104109232041092330480EF90E09093A0
:105820001F0480931E049093210480932004E0E2DF
:10583000FBE0D49001E21BE0DA948FEFD81609F474
:1058400034C0F801649186E194E00E94DE145801AE
:10585000F2E0AF0EB11CF8013196C4900C2D0F7719
:105860007501102F115050F0F701649186E194E01A
:105870000E94D114FFEFEF1AFF0AF4CF0A0D1B2D7F
:10588000111DC7FED9CF78018FEFE81AF80AF80189
:10589000649170E06F3F710511F464EF71E090E086
:1058A00080E00E94C5128701C7CF62E086E194E0E4
:1058B0000E94F3148EE194E19093F4038093F30338
:1058C00080EF90E0909300048093FF039093020494
:1058D000809301041092150410920804109207049A
:1058E00010920E0410920D0482E193E19093F20362
:1058F0008093F103EE24E394F12CF0920C04E092F7
:105900000B04F0920A04E0920904F0921204E0926F
:105910001104F0921004E0920F0480E091E0909363
:10592000F6038093F5031092140410921304F0927E
:105930000404E092030410920604109205040E94ED
:10594000BE1C01E023E042E06BE680913D040E9432
:10595000F01E00E022E044E06BE180913D040E94F3
:10596000F01E22E044E06CE180913D040E94F01EB4
:10597000D0903D0408EE13E09E012F5F3F4F41E0C1
:105980006BE68D2D0E94DC1C89818F7B89838D873E
:10599000AE01435F5F4F6BE68D2D0E94781C0E9425
:1059A0009D1E843309F44AC0F0920404E09203047B
:1059B00082E090E090930C0480930B0490930A048F
:1059C00080930904F0920804E092070480E098EFC5
:1059D00090931204809311049093100480930F0409
:1059E000E091F503F091F60370E060E0309711F07C
:1059F000628170E0660F771F660F771F655B7F4FD0
:105A000046EF51E08EEF9FEF0E94C806E091F5034C
:105A1000F091F60370E060E0309711F0628170E081
:105A200043E0660F771F4A95E1F7645C7F4F40E0E3
:105A300052E08EEF9FEF0E94C806FFCF62E082E047
:105A40000E94641282E00E940D12892B09F0B7C0F7
:105A50000E94E7230E94012882E080936A0410924A
:105A6000610489E594E00E940813882329F080915D
:105A700061048360809361040E94F81260935B0468
:105A800070935C0480935D0490935E0481E0809346
:105A900058042FE030E03093600420935F042CE240
:105AA00031E0309351042093500420ED37E03093DF
:105AB0005304209352048093390183E0282E312C23
:105AC00092E0692E712C20EE422E55245A9499248E
:105AD0009A94809161048B7F8093610489E594E0BE
